{
  "_format": "hh-sol-artifact-1",
  "contractName": "Pear2PearNoMediator",
  "sourceName": "contracts/Pear2PearNoMediator.sol",
  "abi": [
    {
      "inputs": [
        {
          "internalType": "address",
          "name": "courtContract_",
          "type": "address"
        },
        {
          "internalType": "uint256",
          "name": "expireTime",
          "type": "uint256"
        }
      ],
      "stateMutability": "nonpayable",
      "type": "constructor"
    },
    {
      "anonymous": false,
      "inputs": [
        {
          "indexed": true,
          "internalType": "address",
          "name": "sender",
          "type": "address"
        },
        {
          "indexed": true,
          "internalType": "address",
          "name": "partner",
          "type": "address"
        },
        {
          "indexed": false,
          "internalType": "uint256",
          "name": "assets",
          "type": "uint256"
        }
      ],
      "name": "EmitCourt",
      "type": "event"
    },
    {
      "anonymous": false,
      "inputs": [
        {
          "indexed": true,
          "internalType": "address",
          "name": "previousOwner",
          "type": "address"
        },
        {
          "indexed": true,
          "internalType": "address",
          "name": "newOwner",
          "type": "address"
        }
      ],
      "name": "OwnershipTransferred",
      "type": "event"
    },
    {
      "anonymous": false,
      "inputs": [
        {
          "indexed": true,
          "internalType": "address",
          "name": "sender",
          "type": "address"
        },
        {
          "indexed": true,
          "internalType": "address",
          "name": "partner",
          "type": "address"
        },
        {
          "indexed": false,
          "internalType": "uint256",
          "name": "sessionId",
          "type": "uint256"
        }
      ],
      "name": "TradeOffer",
      "type": "event"
    },
    {
      "inputs": [
        {
          "internalType": "uint256",
          "name": "newTime",
          "type": "uint256"
        }
      ],
      "name": "_changeExpireTime",
      "outputs": [],
      "stateMutability": "nonpayable",
      "type": "function"
    },
    {
      "inputs": [
        {
          "internalType": "uint256",
          "name": "sessionId",
          "type": "uint256"
        }
      ],
      "name": "acceptOffer",
      "outputs": [],
      "stateMutability": "payable",
      "type": "function"
    },
    {
      "inputs": [
        {
          "internalType": "uint256",
          "name": "sessionId",
          "type": "uint256"
        }
      ],
      "name": "approveBuyer",
      "outputs": [],
      "stateMutability": "nonpayable",
      "type": "function"
    },
    {
      "inputs": [
        {
          "internalType": "uint256",
          "name": "sessionId",
          "type": "uint256"
        }
      ],
      "name": "approveSeller",
      "outputs": [],
      "stateMutability": "nonpayable",
      "type": "function"
    },
    {
      "inputs": [
        {
          "internalType": "uint256",
          "name": "sessionId",
          "type": "uint256"
        }
      ],
      "name": "callTheCourt",
      "outputs": [],
      "stateMutability": "nonpayable",
      "type": "function"
    },
    {
      "inputs": [
        {
          "internalType": "uint256",
          "name": "sessionId",
          "type": "uint256"
        }
      ],
      "name": "cancelTrade",
      "outputs": [],
      "stateMutability": "nonpayable",
      "type": "function"
    },
    {
      "inputs": [],
      "name": "courtContract",
      "outputs": [
        {
          "internalType": "address",
          "name": "",
          "type": "address"
        }
      ],
      "stateMutability": "view",
      "type": "function"
    },
    {
      "inputs": [],
      "name": "owner",
      "outputs": [
        {
          "internalType": "address",
          "name": "",
          "type": "address"
        }
      ],
      "stateMutability": "view",
      "type": "function"
    },
    {
      "inputs": [],
      "name": "renounceOwnership",
      "outputs": [],
      "stateMutability": "nonpayable",
      "type": "function"
    },
    {
      "inputs": [
        {
          "internalType": "address",
          "name": "buyer",
          "type": "address"
        }
      ],
      "name": "sendOffer",
      "outputs": [],
      "stateMutability": "payable",
      "type": "function"
    },
    {
      "inputs": [
        {
          "internalType": "uint256",
          "name": "sessionId",
          "type": "uint256"
        },
        {
          "internalType": "address",
          "name": "to",
          "type": "address"
        }
      ],
      "name": "transferMoneyTo",
      "outputs": [],
      "stateMutability": "nonpayable",
      "type": "function"
    },
    {
      "inputs": [
        {
          "internalType": "address",
          "name": "newOwner",
          "type": "address"
        }
      ],
      "name": "transferOwnership",
      "outputs": [],
      "stateMutability": "nonpayable",
      "type": "function"
    },
    {
      "stateMutability": "payable",
      "type": "receive"
    }
  ],
  "bytecode": "0x60806040523480156200001157600080fd5b5060405162001d4338038062001d438339818101604052810190620000379190620001a1565b620000576200004b620000a760201b60201c565b620000af60201b60201c565b81600460006101000a81548173ffffffffffffffffffffffffffffffffffffffff021916908373ffffffffffffffffffffffffffffffffffffffff16021790555080600381905550505062000254565b600033905090565b60008060009054906101000a900473ffffffffffffffffffffffffffffffffffffffff169050816000806101000a81548173ffffffffffffffffffffffffffffffffffffffff021916908373ffffffffffffffffffffffffffffffffffffffff1602179055508173ffffffffffffffffffffffffffffffffffffffff168173ffffffffffffffffffffffffffffffffffffffff167f8be0079c531659141344cd1fd0a4f28419497f9722a3daafe3b4186f6b6457e060405160405180910390a35050565b600081519050620001848162000220565b92915050565b6000815190506200019b816200023a565b92915050565b60008060408385031215620001b557600080fd5b6000620001c58582860162000173565b9250506020620001d8858286016200018a565b9150509250929050565b6000620001ef82620001f6565b9050919050565b600073ffffffffffffffffffffffffffffffffffffffff82169050919050565b6000819050919050565b6200022b81620001e2565b81146200023757600080fd5b50565b620002458162000216565b81146200025157600080fd5b50565b611adf80620002646000396000f3fe6080604052600436106100ab5760003560e01c8063896495a511610064578063896495a5146101905780638da5cb5b146101b9578063c2b4d293146101e4578063c815729d1461020d578063c83e4cac14610229578063f2fde38b14610252576100b2565b806309ec6cc7146100b757806326464dd1146100e057806340c200c5146101095780634d35e03b146101255780635c0d82371461014e578063715018a614610179576100b2565b366100b257005b600080fd5b3480156100c357600080fd5b506100de60048036038101906100d9919061175e565b61027b565b005b3480156100ec57600080fd5b506101076004803603810190610102919061175e565b6105a2565b005b610123600480360381019061011e9190611735565b61084e565b005b34801561013157600080fd5b5061014c6004803603810190610147919061175e565b610b60565b005b34801561015a57600080fd5b50610163610e8e565b6040516101709190611827565b60405180910390f35b34801561018557600080fd5b5061018e610eb4565b005b34801561019c57600080fd5b506101b760048036038101906101b2919061175e565b610f3c565b005b3480156101c557600080fd5b506101ce610fc2565b6040516101db9190611827565b60405180910390f35b3480156101f057600080fd5b5061020b60048036038101906102069190611787565b610feb565b005b6102276004803603810190610222919061175e565b6112c7565b005b34801561023557600080fd5b50610250600480360381019061024b919061175e565b6113d8565b005b34801561025e57600080fd5b5061027960048036038101906102749190611735565b611547565b005b6001600082815260200190815260200160002060010160009054906101000a900473ffffffffffffffffffffffffffffffffffffffff1673ffffffffffffffffffffffffffffffffffffffff163373ffffffffffffffffffffffffffffffffffffffff16148061034c57506001600082815260200190815260200160002060020160009054906101000a900473ffffffffffffffffffffffffffffffffffffffff1673ffffffffffffffffffffffffffffffffffffffff163373ffffffffffffffffffffffffffffffffffffffff16145b61035557600080fd5b600015156001600083815260200190815260200160002060070160009054906101000a900460ff1615151461038957600080fd5b60035460016000838152602001908152602001600020600001546103ad91906118ae565b4210156103b957600080fd5b600015156001600083815260200190815260200160002060070160039054906101000a900460ff161515146103ed57600080fd5b600015156001600083815260200190815260200160002060070160029054906101000a900460ff1615151461042157600080fd5b6001600082815260200190815260200160002060010160009054906101000a900473ffffffffffffffffffffffffffffffffffffffff1673ffffffffffffffffffffffffffffffffffffffff166108fc60016000848152602001908152602001600020600401549081150290604051600060405180830381858888f193505050501580156104b3573d6000803e3d6000fd5b506001600082815260200190815260200160002060050160009054906101000a900460ff1615610571576001600082815260200190815260200160002060020160009054906101000a900473ffffffffffffffffffffffffffffffffffffffff1673ffffffffffffffffffffffffffffffffffffffff166108fc60016000848152602001908152602001600020600601549081150290604051600060405180830381858888f1935050505015801561056f573d6000803e3d6000fd5b505b600180600083815260200190815260200160002060070160036101000a81548160ff02191690831515021790555050565b6001600082815260200190815260200160002060010160009054906101000a900473ffffffffffffffffffffffffffffffffffffffff1673ffffffffffffffffffffffffffffffffffffffff163373ffffffffffffffffffffffffffffffffffffffff161461061057600080fd5b600115156001600083815260200190815260200160002060070160009054906101000a900460ff1615151461064457600080fd5b600015156001600083815260200190815260200160002060070160029054906101000a900460ff1615151461067857600080fd5b600180600083815260200190815260200160002060070160016101000a81548160ff0219169083151502179055506001600082815260200190815260200160002060020160009054906101000a900473ffffffffffffffffffffffffffffffffffffffff1673ffffffffffffffffffffffffffffffffffffffff166108fc6001600084815260200190815260200160002060060154600160008581526020019081526020016000206003015461072e91906118ae565b9081150290604051600060405180830381858888f19350505050158015610759573d6000803e3d6000fd5b506000600160008381526020019081526020016000206003015460016000848152602001908152602001600020600401546107949190611935565b90506000811461081c576001600083815260200190815260200160002060010160009054906101000a900473ffffffffffffffffffffffffffffffffffffffff1673ffffffffffffffffffffffffffffffffffffffff166108fc829081150290604051600060405180830381858888f1935050505015801561081a573d6000803e3d6000fd5b505b600180600084815260200190815260200160002060070160036101000a81548160ff0219169083151502179055505050565b600060023461085d9190611904565b90506040518061016001604052804281526020013373ffffffffffffffffffffffffffffffffffffffff1681526020018373ffffffffffffffffffffffffffffffffffffffff168152602001600081526020016000815260200160001515815260200160008152602001600015158152602001600015158152602001600015158152602001600015158152506001600060025481526020019081526020016000206000820151816000015560208201518160010160006101000a81548173ffffffffffffffffffffffffffffffffffffffff021916908373ffffffffffffffffffffffffffffffffffffffff16021790555060408201518160020160006101000a81548173ffffffffffffffffffffffffffffffffffffffff021916908373ffffffffffffffffffffffffffffffffffffffff160217905550606082015181600301556080820151816004015560a08201518160050160006101000a81548160ff02191690831515021790555060c0820151816006015560e08201518160070160006101000a81548160ff0219169083151502179055506101008201518160070160016101000a81548160ff0219169083151502179055506101208201518160070160026101000a81548160ff0219169083151502179055506101408201518160070160036101000a81548160ff0219169083151502179055509050503073ffffffffffffffffffffffffffffffffffffffff166108fc349081150290604051600060405180830381858888f19350505050158015610aa0573d6000803e3d6000fd5b50346001600060025481526020019081526020016000206004018190555080600160006002548152602001908152602001600020600301819055508173ffffffffffffffffffffffffffffffffffffffff163373ffffffffffffffffffffffffffffffffffffffff167f7313913169c23d912a206f69c20795a3885f7eac193b90b99f05b28e0b5ac485600254604051610b3a9190611882565b60405180910390a3600160026000828254610b5591906118ae565b925050819055505050565b6001600082815260200190815260200160002060010160009054906101000a900473ffffffffffffffffffffffffffffffffffffffff1673ffffffffffffffffffffffffffffffffffffffff163373ffffffffffffffffffffffffffffffffffffffff161480610c3157506001600082815260200190815260200160002060020160009054906101000a900473ffffffffffffffffffffffffffffffffffffffff1673ffffffffffffffffffffffffffffffffffffffff163373ffffffffffffffffffffffffffffffffffffffff16145b610c3a57600080fd5b6003546001600083815260200190815260200160002060000154610c5e91906118ae565b421015610c6a57600080fd5b600015156001600083815260200190815260200160002060070160039054906101000a900460ff16151514610c9e57600080fd5b600115156001600083815260200190815260200160002060070160009054906101000a900460ff16151514610cd257600080fd5b600015156001600083815260200190815260200160002060070160029054906101000a900460ff16151514610d0657600080fd5b600180600083815260200190815260200160002060070160026101000a81548160ff0219169083151502179055506001600082815260200190815260200160002060010160009054906101000a900473ffffffffffffffffffffffffffffffffffffffff1673ffffffffffffffffffffffffffffffffffffffff163373ffffffffffffffffffffffffffffffffffffffff1614610dd9576001600082815260200190815260200160002060010160009054906101000a900473ffffffffffffffffffffffffffffffffffffffff16610e11565b6001600082815260200190815260200160002060020160009054906101000a900473ffffffffffffffffffffffffffffffffffffffff165b73ffffffffffffffffffffffffffffffffffffffff163373ffffffffffffffffffffffffffffffffffffffff167fe258fd425013a0ceccde12ba1a6d1931d05c4a18739400b712c607abe48ef7186001600085815260200190815260200160002060030154604051610e839190611882565b60405180910390a350565b600460009054906101000a900473ffffffffffffffffffffffffffffffffffffffff1681565b610ebc61163f565b73ffffffffffffffffffffffffffffffffffffffff16610eda610fc2565b73ffffffffffffffffffffffffffffffffffffffff1614610f30576040517f08c379a0000000000000000000000000000000000000000000000000000000008152600401610f2790611862565b60405180910390fd5b610f3a6000611647565b565b610f4461163f565b73ffffffffffffffffffffffffffffffffffffffff16610f62610fc2565b73ffffffffffffffffffffffffffffffffffffffff1614610fb8576040517f08c379a0000000000000000000000000000000000000000000000000000000008152600401610faf90611862565b60405180910390fd5b8060038190555050565b60008060009054906101000a900473ffffffffffffffffffffffffffffffffffffffff16905090565b600460009054906101000a900473ffffffffffffffffffffffffffffffffffffffff1673ffffffffffffffffffffffffffffffffffffffff163373ffffffffffffffffffffffffffffffffffffffff161461104557600080fd5b600115156001600084815260200190815260200160002060070160029054906101000a900460ff1615151461107957600080fd5b600015156001600084815260200190815260200160002060070160039054906101000a900460ff161515146110ad57600080fd5b6001600083815260200190815260200160002060020160009054906101000a900473ffffffffffffffffffffffffffffffffffffffff1673ffffffffffffffffffffffffffffffffffffffff168173ffffffffffffffffffffffffffffffffffffffff16148061117e57508073ffffffffffffffffffffffffffffffffffffffff166001600084815260200190815260200160002060010160009054906101000a900473ffffffffffffffffffffffffffffffffffffffff1673ffffffffffffffffffffffffffffffffffffffff16145b61118757600080fd5b6000600160008481526020019081526020016000206003015490508173ffffffffffffffffffffffffffffffffffffffff166108fc82600160008781526020019081526020016000206006015460016000888152602001908152602001600020600401546111f591906118ae565b6111ff9190611935565b9081150290604051600060405180830381858888f1935050505015801561122a573d6000803e3d6000fd5b50600460009054906101000a900473ffffffffffffffffffffffffffffffffffffffff1673ffffffffffffffffffffffffffffffffffffffff166108fc829081150290604051600060405180830381858888f19350505050158015611293573d6000803e3d6000fd5b50600180600085815260200190815260200160002060070160036101000a81548160ff021916908315150217905550505050565b6001600082815260200190815260200160002060020160009054906101000a900473ffffffffffffffffffffffffffffffffffffffff1673ffffffffffffffffffffffffffffffffffffffff163373ffffffffffffffffffffffffffffffffffffffff161461133557600080fd5b600015156001600083815260200190815260200160002060050160009054906101000a900460ff1615151461136957600080fd5b600160008281526020019081526020016000206003015434101561138c57600080fd5b600180600083815260200190815260200160002060050160006101000a81548160ff02191690831515021790555034600160008381526020019081526020016000206006018190555050565b6001600082815260200190815260200160002060020160009054906101000a900473ffffffffffffffffffffffffffffffffffffffff1673ffffffffffffffffffffffffffffffffffffffff163373ffffffffffffffffffffffffffffffffffffffff161461144657600080fd5b600015156001600083815260200190815260200160002060070160009054906101000a900460ff1615151461147a57600080fd5b600015156001600083815260200190815260200160002060070160039054906101000a900460ff161515146114ae57600080fd5b600115156001600083815260200190815260200160002060050160009054906101000a900460ff161515146114e257600080fd5b600015156001600083815260200190815260200160002060070160029054906101000a900460ff1615151461151657600080fd5b600180600083815260200190815260200160002060070160006101000a81548160ff02191690831515021790555050565b61154f61163f565b73ffffffffffffffffffffffffffffffffffffffff1661156d610fc2565b73ffffffffffffffffffffffffffffffffffffffff16146115c3576040517f08c379a00000000000000000000000000000000000000000000000000000000081526004016115ba90611862565b60405180910390fd5b600073ffffffffffffffffffffffffffffffffffffffff168173ffffffffffffffffffffffffffffffffffffffff161415611633576040517f08c379a000000000000000000000000000000000000000000000000000000000815260040161162a90611842565b60405180910390fd5b61163c81611647565b50565b600033905090565b60008060009054906101000a900473ffffffffffffffffffffffffffffffffffffffff169050816000806101000a81548173ffffffffffffffffffffffffffffffffffffffff021916908373ffffffffffffffffffffffffffffffffffffffff1602179055508173ffffffffffffffffffffffffffffffffffffffff168173ffffffffffffffffffffffffffffffffffffffff167f8be0079c531659141344cd1fd0a4f28419497f9722a3daafe3b4186f6b6457e060405160405180910390a35050565b60008135905061171a81611a7b565b92915050565b60008135905061172f81611a92565b92915050565b60006020828403121561174757600080fd5b60006117558482850161170b565b91505092915050565b60006020828403121561177057600080fd5b600061177e84828501611720565b91505092915050565b6000806040838503121561179a57600080fd5b60006117a885828601611720565b92505060206117b98582860161170b565b9150509250929050565b6117cc81611969565b82525050565b60006117df60268361189d565b91506117ea82611a03565b604082019050919050565b600061180260208361189d565b915061180d82611a52565b602082019050919050565b6118218161199b565b82525050565b600060208201905061183c60008301846117c3565b92915050565b6000602082019050818103600083015261185b816117d2565b9050919050565b6000602082019050818103600083015261187b816117f5565b9050919050565b60006020820190506118976000830184611818565b92915050565b600082825260208201905092915050565b60006118b98261199b565b91506118c48361199b565b9250827fffffffffffffffffffffffffffffffffffffffffffffffffffffffffffffffff038211156118f9576118f86119a5565b5b828201905092915050565b600061190f8261199b565b915061191a8361199b565b92508261192a576119296119d4565b5b828204905092915050565b60006119408261199b565b915061194b8361199b565b92508282101561195e5761195d6119a5565b5b828203905092915050565b60006119748261197b565b9050919050565b600073ffffffffffffffffffffffffffffffffffffffff82169050919050565b6000819050919050565b7f4e487b7100000000000000000000000000000000000000000000000000000000600052601160045260246000fd5b7f4e487b7100000000000000000000000000000000000000000000000000000000600052601260045260246000fd5b7f4f776e61626c653a206e6577206f776e657220697320746865207a65726f206160008201527f6464726573730000000000000000000000000000000000000000000000000000602082015250565b7f4f776e61626c653a2063616c6c6572206973206e6f7420746865206f776e6572600082015250565b611a8481611969565b8114611a8f57600080fd5b50565b611a9b8161199b565b8114611aa657600080fd5b5056fea26469706673582212207116a068ad0dc82814c5643d55bd1b798824d4814c39335a26332d64d7a4f57164736f6c63430008040033",
  "linkReferences": {},
  "deployedLinkReferences": {}
}